:020000040000FA
:10000000E0B2FF1F9502000021330000230D000025
:1000100019330000F50300004D4B00000000000004
:100020000000000000000000000000004D3500004E
:10003000810C00000000000045350000513900002F
:100040002D0D0000410D0000550D0000690D000050
:100050007D0D0000910D0000A50D0000B90D000000
:10006000CD0D0000E10D0000F50D0000090E0000AF
:100070001D0E0000310E0000450E0000590E00005C
:100080006D0E0000810E0000950E0000A90E00000C
:10009000BD0E0000D10E0000E50E0000F90E0000BC
:1000A0000D0F0000210F0000350F0000490F000068
:1000B0005D0F0000710F0000850F0000990F000018
:1000C000AD0F0000C50F0000DD0F0000F50F0000B0
:1000D0000D100000251000003D100000551000001C
:1000E0006D100000851000009D100000B51000008C
:1000F000CD100000E5100000FD10000015110000FB
:100100002D110000451100005D1100007511000067
:100110008D110000A5110000BD110000D5110000D7
:10012000ED110000051200001D1200003512000044
:100130004D120000651200007D12000095120000B3
:10014000AD120000C5120000DD120000F512000023
:100150000D130000251300003D130000551300008F
:100160006D130000851300009D130000B5130000FF
:10017000CD130000E5130000FD130000151400006E
:100180002D140000451400005D14000075140000DB
:100190008D140000A5140000BD140000D51400004B
:1001A000ED140000051500001D15000035150000B8
:1001B0004D150000651500007D1500009515000027
:1001C000AD150000C5150000DD150000F515000097
:1001D0000D160000251600003D1600005516000003
:1001E0006D160000851600009D160000B516000073
:1001F000CD160000E5160000FD16000015170000E2
:100200002D170000451700005D170000751700004E
:100210008D170000A5170000BD170000D5170000BE
:10022000ED170000051800001D180000351800002B
:100230004D180000651800007D180000951800009A
:10024000AD180000FD190000651E0000411F0000F0
:1002500009220000D7020000D7020000D7020000E8
:100260007923000099260000212900005D2B000061
:10027000852C0000992E0000F530000009320000A6
:10028000DFF80CD000F0D6F9004800477D4D0000A3
:10029000E0B2FF1F10484FF0770101600F484FF0A8
:1002A000770101600E484FF4885101600A484FF011
:1002B0007601016009484FF07601016009488047E6
:1002C00009480047FEE7FEE7FEE7FEE7FEE7FEE738
:1002D000FEE7FEE7FEE7FEE7040805400C080540E0
:1002E00000080540293B0000810200002DE9F05F75
:1002F0000546002092469B46884606468146402495
:100300001BE0284641464746224600F04CF953463A
:100310005A46C01A914110D311461846224600F0A1
:1003200033F92D1A67EB01084F46224601200021C0
:1003300000F02AF917EB00094E41201EA4F1010438
:10034000DFDC484631462A464346BDE8F09FD2B23C
:1003500001E000F8012B491EFBD270470022F6E7AE
:1003600010B513460A4604461946FFF7F0FF20462B
:1003700010BD80EA010210B502F00043400022D017
:100380004A001FD0010E01EB1261C0F35600C2F308
:10039000560240F4000042F40002A0FB02200004D8
:1003A0007F39140400D0401C50EA124001D44000B0
:1003B000491EC2B20C0604EBD010401C4008802A33
:1003C00002D003E0002010BD20F00100002900DA77
:1003D0000020184310BD96230022114600F0FCB8FF
:1003E000002801DBC0F10040002901DBC1F1004120
:1003F0008142704710B5AFF3008010BD7047000018
:10040000FFFFFFFFFFFFFFFFFFFFFFFFFFFFFFFFFC
:10041000FFFFFFFFFFFFFFFFFFFFFFFFFFFFFFFFEC
:10042000F0B480EA0102D40F4200B2EB410F02D2D5
:100430000246084611464A0042D0C30DDDB2C1F360
:10044000C752AD1A202D35DAC1F3160141F400026E
:1004500004B15242C5F1200602FA06F12A411044C5
:10046000B3EBD05F23D0C4B1012DA0EBC35009DCA6
:10047000F0BC4FF0004202EAC352DBB200F50000CC
:1004800000F0AAB8400000F1807000EBC350A0F16A
:10049000807040EAD170490009E0490841EAC07122
:1004A000A0EBC35000F50000400800EBC350F0BCC7
:1004B00000F089B86142012202EB4101001BF6E71E
:1004C000F0BC704781F00041AAE780F00040A7E748
:1004D00030B480EA010202F0004530F0004221F021
:1004E000004013D090B1C30DD40DC2F31601C0F378
:1004F0001600E41A41F4000140F400027D349142F8
:1005000001D3641C00E04900002C02DA30BC00205A
:1005100070474FF400000023914201D3891A03432E
:1005200040084FEA4101F7D151B1914202D14FF059
:10053000004105E002D24FF0010101E06FF001013E
:1005400003EBC450284430BC00F03DB820F000401C
:10055000C10DC0F3160040F400007F2901DA00202D
:100560007047962903DCC1F19601C840704796395F
:1005700088407047002801DBC0F10040002901DB02
:10058000C1F1004188427047202A04DB203A00FA7A
:1005900002F1002070479140C2F1200320FA03F3DA
:1005A000194390407047202A04DB203A21FA02F0D8
:1005B0000021704721FA02F3D040C2F1200291409D
:1005C0000843194670470029A8BF7047401C4900DE
:1005D00008BF20F00100704710B4B0FA80FC00FAA8
:1005E0000CF050EA010404BF10BC704749B1CCF1D3
:1005F000200421FA04F411FA0CF118BF012121435F
:100600000843A3EB0C01CB1D4FEA00614FEA102019
:1006100042BF002010BC704700EBC35010440029BB
:10062000A4BF10BC7047401C490008BF20F0010067
:1006300010BC7047064C074D06E0E06840F001032F
:1006400094E8070098471034AC42F6D3FFF71CFE3D
:10065000B04D0000D04D000010B50D4800780128C5
:1006600004D100200A49087004F054FA09480078BF
:10067000012802D1002007490870074800780128A6
:1006800004D100200449087004F02AFB10BD0000CA
:100690003380FF1F3480FF1F3580FF1F2DE9F04797
:1006A00005460E46144600270021284603F07DFD2E
:1006B00080460121284603F078FD8146012C07D1B0
:1006C000B8F1010F02D0B9F1010F08D1012706E0FE
:1006D0003146284603F069FD012800D10127012F8A
:1006E0000BD1002001E000BF401C0549096842F21F
:1006F0001072B1FBF2F18142F5D8BDE8F08700003D
:100700000080FF1F70B50021002200240023002874
:100710007ED0434D2D7805F00705052D15D2DFE875
:1007200005F00306090D10003E4D05603BE03E4D0F
:10073000056038E04FF40045056034E03A4D05604F
:1007400031E04FF4004505602DE0354DDA352D6878
:10075000C5F3C013324D263DD5F800512A0F304D58
:10076000DA352D68C5F308212D4D263DD5F8005109
:1007700005F01F0453B9651C2B4EB6FBF5F54E1C56
:100780007543561CB5FBF6F505600BE0012B09D14E
:10079000651C244EB6FBF5F54E1C7543561CB5FB87
:1007A000F6F5056000BF00BF1D4E263E0568366A9F
:1007B000C6F30266F5404560194E263E0568366A66
:1007C000C6F30256F5408560154E263E0568366A2A
:1007D00006F00706F540C560114E263E0568366AEC
:1007E000C6F30216F54005610D4E263E0568366AD1
:1007F000C6F30226F5404561094E263E0568366A75
:10080000C6F30236F5408561054E263E056800E0D8
:1008100004E0366AC6F30246F540C56170BD0000CB
:10082000264005400024F40000127A00014631B150
:1008300001290DD0022914D0032924D11AE0184A25
:10084000127802F0010282F0010282F0010024E03D
:10085000134A1278C2F3C00282F0010282F0010052
:100860001BE00F4A1278C2F3401282F0010282F0BC
:10087000010012E00A4A1278C2F3801282F00102EB
:1008800082F0010009E0064A521D127802F00102CE
:1008900082F0010282F0010000BF00BF704700003B
:1008A0003C40054038B504460020009000252A4809
:1008B00000884AF2015108432849A1F8FE0344BBCD
:1008C00026482630007800F0070008B9012536E0F8
:1008D00023480068C0F3C01088B120482A3000784F
:1008E00000F0010008B9012529E01C4836300078E5
:1008F00020F00100401C194981F836001FE017481C
:100900003630007820F00100401C144981F8360090
:1009100015E012483630007820F001000F4981F8C8
:10092000360000BF0020FFF781FF03460098401CFF
:1009300000900098B0F5805F01D2012BF2D10648FB
:1009400000884FF6FE71084040F425400349A1F8A5
:10095000FE03284638BD0000FE4305400040054028
:100960000041054038B504460020009000251F488E
:1009700000884AF2015108431D49A1F8FE0394B9C9
:100980001B482630007800F00700052801D101251A
:100990001FE017482A30007820F00100401C14495D
:1009A00081F82A0015E012482A30007820F0010072
:1009B0000F4981F82A0000BF0220FFF737FF0346E6
:1009C0000098401C00900098B0F5805F01D2012B88
:1009D000F2D1064800884FF6FE71084040F42540E9
:1009E0000349A1F8FE03284638BD0000FE43054038
:1009F0000040054000283ED01F4909884AF20152B4
:100A000011431D4A11800178491E1C4AD2F8002169
:100A100061F31F721A490A600179491E174AD2F818
:100A2000002161F31B6216490A60017A491E134ACC
:100A3000D2F8002161F3175211490A608189491ED9
:100A40000E4AD2F8002161F310220D490A60017CA0
:100A5000491E0A4AD2F8002161F304020749C1F88D
:100A60000021B1F8FE134FF6FE72114041F425410A
:100A7000024AA2F8FE137047FE43054000400540BD
:100A8000004105400D4909884AF2015211430C4AC0
:100A9000A2F8FE131146D1F8001160F3C711C2F895
:100AA00000111146B1F8FE134FF6FE72114041F4E9
:100AB0002541034AA2F8FE1370470000FE4305409B
:100AC0000040054010B586B00446002005902E4831
:100AD000006804902C48406803902B48806802907E
:100AE0002948C06801902948007800F007000528CF
:100AF00001D0052C0DD1264823490860C01248605A
:100B00008860C86000BF0598401C05900598B02813
:100B1000F9D3204800884AF2015108431B4926397D
:100B2000A1F8FE03084690F8260064F3020081F85D
:100B300026000846B0F8FE034FF6FE71084040F468
:100B4000254012492639A1F8FE030020059000BF78
:100B50000598401C05900598B028F9D30A490498D7
:100B6000086003984860029888600198C860002077
:100B7000059000BF0598401C05900598B028F9D352
:100B800002F070FF06B010BD008004402640054012
:100B9000EEFAFFFFFE43054085B000210491344981
:100BA0000968039132494968029131498968019184
:100BB0002F49C9680091002858D02E49097801F0C2
:100BC000070105290DD12C49294A1160C91251602C
:100BD0009160D16000BF0499491C04910499B02927
:100BE000F9D3264909884AF201521143234A118058
:100BF0008178C27841EA0211027941EA0221427900
:100C000041EA0231827941EA0241427841EA0251E5
:100C1000027841EA026141EA0271164A263A1162FB
:100C2000164909884FF6FE72114041F42541114AD8
:100C3000263AA2F8FE130021049100BF0499491C32
:100C400004910499B029F9D3094A039911600299D2
:100C50005160019991600099D1600021049100BF19
:100C60000499491C04910499B029F9D305B070473F
:100C70000080044026400540EEFAFFFFFE43054099
:100C800010B5AFF3008010BD0349096860F310414F
:100C9000014A1160704700000804014004480068E0
:100CA000012804D143F21020014908600860704710
:100CB000000401400349096860F30711014A11600B
:100CC000704700000804014040F223100249086008
:100CD00043F2102008607047000401401CB500BFBB
:100CE00000200090019000BF01208DF800008DF8D9
:100CF00002008DF804006A464021042002F040FB07
:100D00006A468021002002F03BFB6A462021012038
:100D100002F036FB6A464FF40071012002F030FB0E
:100D20001CBD10B5AFF3008010BD000010B5034826
:100D3000006810B101490868804710BD4080FF1F5E
:100D400010B50348406810B101494868804710BD9C
:100D50004080FF1F10B50348806810B101498868C2
:100D6000804710BD4080FF1F10B50348C06810B118
:100D70000149C868804710BD4080FF1F10B5034877
:100D8000006910B101490869804710BD4080FF1F0C
:100D900010B50348406910B101494869804710BD4A
:100DA0004080FF1F10B50348806910B10149886970
:100DB000804710BD4080FF1F10B50348C06910B1C7
:100DC0000149C869804710BD4080FF1F10B5034826
:100DD000006A10B10149086A804710BD4080FF1FBA
:100DE00010B50348406A10B10149486A804710BDF8
:100DF0004080FF1F10B50348806A10B10149886A1E
:100E0000804710BD4080FF1F10B50348C06A10B175
:100E10000149C86A804710BD4080FF1F10B50348D4
:100E2000006B10B10149086B804710BD4080FF1F67
:100E300010B50348406B10B10149486B804710BDA5
:100E40004080FF1F10B50348806B10B10149886BCB
:100E5000804710BD4080FF1F10B50348C06B10B124
:100E60000149C86B804710BD4080FF1F10B5034883
:100E7000006C10B10149086C804710BD4080FF1F15
:100E800010B50348406C10B10149486C804710BD53
:100E90004080FF1F10B50348806C10B10149886C79
:100EA000804710BD4080FF1F10B50348C06C10B1D3
:100EB0000149C86C804710BD4080FF1F10B5034832
:100EC000006D10B10149086D804710BD4080FF1FC3
:100ED00010B50348406D10B10149486D804710BD01
:100EE0004080FF1F10B50348806D10B10149886D27
:100EF000804710BD4080FF1F10B50348C06D10B182
:100F00000149C86D804710BD4080FF1F10B50348E0
:100F1000006E10B10149086E804710BD4080FF1F70
:100F200010B50348406E10B10149486E804710BDAE
:100F30004080FF1F10B50348806E10B10149886ED4
:100F4000804710BD4080FF1F10B50348C06E10B130
:100F50000149C86E804710BD4080FF1F10B503488F
:100F6000006F10B10149086F804710BD4080FF1F1E
:100F700010B50348406F10B10149486F804710BD5C
:100F80004080FF1F10B50348806F10B10149886F82
:100F9000804710BD4080FF1F10B50348C06F10B1DF
:100FA0000149C86F804710BD4080FF1F10B504483D
:100FB000D0F8800018B10249D1F88000804710BDF8
:100FC0004080FF1F10B50448D0F8840018B10249D2
:100FD000D1F88400804710BD4080FF1F10B5044841
:100FE000D0F8880018B10249D1F88800804710BDB8
:100FF0004080FF1F10B50448D0F88C0018B102499A
:10100000D1F88C00804710BD4080FF1F10B5044808
:10101000D0F8900018B10249D1F89000804710BD77
:101020004080FF1F10B50448D0F8940018B1024961
:10103000D1F89400804710BD4080FF1F10B50448D0
:10104000D0F8980018B10249D1F89800804710BD37
:101050004080FF1F10B50448D0F89C0018B1024929
:10106000D1F89C00804710BD4080FF1F10B5044898
:10107000D0F8A00018B10249D1F8A000804710BDF7
:101080004080FF1F10B50448D0F8A40018B10249F1
:10109000D1F8A400804710BD4080FF1F10B5044860
:1010A000D0F8A80018B10249D1F8A800804710BDB7
:1010B0004080FF1F10B50448D0F8AC0018B10249B9
:1010C000D1F8AC00804710BD4080FF1F10B5044828
:1010D000D0F8B00018B10249D1F8B000804710BD77
:1010E0004080FF1F10B50448D0F8B40018B1024981
:1010F000D1F8B400804710BD4080FF1F10B50448F0
:10110000D0F8B80018B10249D1F8B800804710BD36
:101110004080FF1F10B50448D0F8BC0018B1024948
:10112000D1F8BC00804710BD4080FF1F10B50448B7
:10113000D0F8C00018B10249D1F8C000804710BDF6
:101140004080FF1F10B50448D0F8C40018B1024910
:10115000D1F8C400804710BD4080FF1F10B504487F
:10116000D0F8C80018B10249D1F8C800804710BDB6
:101170004080FF1F10B50448D0F8CC0018B10249D8
:10118000D1F8CC00804710BD4080FF1F10B5044847
:10119000D0F8D00018B10249D1F8D000804710BD76
:1011A0004080FF1F10B50448D0F8D40018B10249A0
:1011B000D1F8D400804710BD4080FF1F10B504480F
:1011C000D0F8D80018B10249D1F8D800804710BD36
:1011D0004080FF1F10B50448D0F8DC0018B1024968
:1011E000D1F8DC00804710BD4080FF1F10B50448D7
:1011F000D0F8E00018B10249D1F8E000804710BDF6
:101200004080FF1F10B50448D0F8E40018B102492F
:10121000D1F8E400804710BD4080FF1F10B504489E
:10122000D0F8E80018B10249D1F8E800804710BDB5
:101230004080FF1F10B50448D0F8EC0018B10249F7
:10124000D1F8EC00804710BD4080FF1F10B5044866
:10125000D0F8F00018B10249D1F8F000804710BD75
:101260004080FF1F10B50448D0F8F40018B10249BF
:10127000D1F8F400804710BD4080FF1F10B504482E
:10128000D0F8F80018B10249D1F8F800804710BD35
:101290004080FF1F10B50448D0F8FC0018B1024987
:1012A000D1F8FC00804710BD4080FF1F10B50448F6
:1012B000D0F8000118B10249D1F80001804710BDF3
:1012C0004080FF1F10B50448D0F8040118B102494E
:1012D000D1F80401804710BD4080FF1F10B50448BD
:1012E000D0F8080118B10249D1F80801804710BDB3
:1012F0004080FF1F10B50448D0F80C0118B1024916
:10130000D1F80C01804710BD4080FF1F10B5044884
:10131000D0F8100118B10249D1F81001804710BD72
:101320004080FF1F10B50448D0F8140118B10249DD
:10133000D1F81401804710BD4080FF1F10B504484C
:10134000D0F8180118B10249D1F81801804710BD32
:101350004080FF1F10B50448D0F81C0118B10249A5
:10136000D1F81C01804710BD4080FF1F10B5044814
:10137000D0F8200118B10249D1F82001804710BDF2
:101380004080FF1F10B50448D0F8240118B102496D
:10139000D1F82401804710BD4080FF1F10B50448DC
:1013A000D0F8280118B10249D1F82801804710BDB2
:1013B0004080FF1F10B50448D0F82C0118B1024935
:1013C000D1F82C01804710BD4080FF1F10B50448A4
:1013D000D0F8300118B10249D1F83001804710BD72
:1013E0004080FF1F10B50448D0F8340118B10249FD
:1013F000D1F83401804710BD4080FF1F10B504486C
:10140000D0F8380118B10249D1F83801804710BD31
:101410004080FF1F10B50448D0F83C0118B10249C4
:10142000D1F83C01804710BD4080FF1F10B5044833
:10143000D0F8400118B10249D1F84001804710BDF1
:101440004080FF1F10B50448D0F8440118B102498C
:10145000D1F84401804710BD4080FF1F10B50448FB
:10146000D0F8480118B10249D1F84801804710BDB1
:101470004080FF1F10B50448D0F84C0118B1024954
:10148000D1F84C01804710BD4080FF1F10B50448C3
:10149000D0F8500118B10249D1F85001804710BD71
:1014A0004080FF1F10B50448D0F8540118B102491C
:1014B000D1F85401804710BD4080FF1F10B504488B
:1014C000D0F8580118B10249D1F85801804710BD31
:1014D0004080FF1F10B50448D0F85C0118B10249E4
:1014E000D1F85C01804710BD4080FF1F10B5044853
:1014F000D0F8600118B10249D1F86001804710BDF1
:101500004080FF1F10B50448D0F8640118B10249AB
:10151000D1F86401804710BD4080FF1F10B504481A
:10152000D0F8680118B10249D1F86801804710BDB0
:101530004080FF1F10B50448D0F86C0118B1024973
:10154000D1F86C01804710BD4080FF1F10B50448E2
:10155000D0F8700118B10249D1F87001804710BD70
:101560004080FF1F10B50448D0F8740118B102493B
:10157000D1F87401804710BD4080FF1F10B50448AA
:10158000D0F8780118B10249D1F87801804710BD30
:101590004080FF1F10B50448D0F87C0118B1024903
:1015A000D1F87C01804710BD4080FF1F10B5044872
:1015B000D0F8800118B10249D1F88001804710BDF0
:1015C0004080FF1F10B50448D0F8840118B10249CB
:1015D000D1F88401804710BD4080FF1F10B504483A
:1015E000D0F8880118B10249D1F88801804710BDB0
:1015F0004080FF1F10B50448D0F88C0118B1024993
:10160000D1F88C01804710BD4080FF1F10B5044801
:10161000D0F8900118B10249D1F89001804710BD6F
:101620004080FF1F10B50448D0F8940118B102495A
:10163000D1F89401804710BD4080FF1F10B50448C9
:10164000D0F8980118B10249D1F89801804710BD2F
:101650004080FF1F10B50448D0F89C0118B1024922
:10166000D1F89C01804710BD4080FF1F10B5044891
:10167000D0F8A00118B10249D1F8A001804710BDEF
:101680004080FF1F10B50448D0F8A40118B10249EA
:10169000D1F8A401804710BD4080FF1F10B5044859
:1016A000D0F8A80118B10249D1F8A801804710BDAF
:1016B0004080FF1F10B50448D0F8AC0118B10249B2
:1016C000D1F8AC01804710BD4080FF1F10B5044821
:1016D000D0F8B00118B10249D1F8B001804710BD6F
:1016E0004080FF1F10B50448D0F8B40118B102497A
:1016F000D1F8B401804710BD4080FF1F10B50448E9
:10170000D0F8B80118B10249D1F8B801804710BD2E
:101710004080FF1F10B50448D0F8BC0118B1024941
:10172000D1F8BC01804710BD4080FF1F10B50448B0
:10173000D0F8C00118B10249D1F8C001804710BDEE
:101740004080FF1F10B50448D0F8C40118B1024909
:10175000D1F8C401804710BD4080FF1F10B5044878
:10176000D0F8C80118B10249D1F8C801804710BDAE
:101770004080FF1F10B50448D0F8CC0118B10249D1
:10178000D1F8CC01804710BD4080FF1F10B5044840
:10179000D0F8D00118B10249D1F8D001804710BD6E
:1017A0004080FF1F10B50448D0F8D40118B1024999
:1017B000D1F8D401804710BD4080FF1F10B5044808
:1017C000D0F8D80118B10249D1F8D801804710BD2E
:1017D0004080FF1F10B50448D0F8DC0118B1024961
:1017E000D1F8DC01804710BD4080FF1F10B50448D0
:1017F000D0F8E00118B10249D1F8E001804710BDEE
:101800004080FF1F10B50448D0F8E40118B1024928
:10181000D1F8E401804710BD4080FF1F10B5044897
:10182000D0F8E80118B10249D1F8E801804710BDAD
:101830004080FF1F10B50448D0F8EC0118B10249F0
:10184000D1F8EC01804710BD4080FF1F10B504485F
:10185000D0F8F00118B10249D1F8F001804710BD6D
:101860004080FF1F10B50448D0F8F40118B10249B8
:10187000D1F8F401804710BD4080FF1F10B5044827
:10188000D0F8F80118B10249D1F8F801804710BD2D
:101890004080FF1F10B50448D0F8FC0118B1024980
:1018A000D1F8FC01804710BD4080FF1F10B55148A2
:1018B000046851480068012804D104F0010008B10F
:1018C000AFF300804C48001D0068012804D104F0EB
:1018D000020008B1AFF300804748083000680128D3
:1018E00004D104F0040008B1AFF3008042480C308A
:1018F0000068012804D104F0080008B1AFF30080AB
:101900003D4810300068012804D104F0100008B1EF
:10191000AFF30080384814300068012804D104F087
:10192000200008B1AFF30080334818300068012868
:1019300004D104F0400008B1AFF300802E481C3001
:101940000068012804D104F0800008B1AFF30080E2
:10195000294820300068012804D104F4807008B1BF
:10196000AFF30080244824300068012804D104F437
:10197000007008B1AFF300801F48283000680128CC
:1019800004D104F4806008B1AFF300801A482C3011
:101990000068012804D104F4006008B1AFF30080AE
:1019A000154830300068012804D104F4805008B193
:1019B000AFF30080104834300068012804D104F4EB
:1019C000005008B1AFF300800B48383000680128A0
:1019D00004D104F4804008B1AFF3008006483C30E5
:1019E0000068012804D104F4004008B1AFF300807E
:1019F00010BD00005C120540800AA24270B5FE488E
:101A0000046800260025FD48006801282BD1FC4809
:101A1000006840B9FB480068012804D104F00100C7
:101A200008B1AFF30080F6484030006848B9F54887
:101A300040300068012804D104F4807008B1AFF38D
:101A40000080F148406800F00116EF48C1684FF08F
:101A5000011020EA010506EA050020B104F48030F7
:101A600008B1AFF30080E948006801282DD1E448AF
:101A7000001D006848B9E348001D0068012804D132
:101A800004F0020008B1AFF30080DD484430006884
:101A900048B9DC4844300068012804D104F40070DF
:101AA00008B1AFF30080D848406800F00216D6486D
:101AB000C1684FF0021020EA010506EA050020B1D6
:101AC00004F4803008B1AFF30080D14800680128E9
:101AD0002DD1CB480830006848B9CA4808300068A2
:101AE000012804D104F0040008B1AFF30080C44819
:101AF0004830006848B9C34848300068012804D11C
:101B000004F4806008B1AFF30080BF48406800F083
:101B10000416BD48C1684FF0041020EA010506EA2A
:101B2000050020B104F4803008B1AFF30080B9485B
:101B3000006801282DD1B2480C30006848B9B1487E
:101B40000C300068012804D104F0080008B1AFF39C
:101B50000080AB484C30006848B9AA484C30006857
:101B6000012804D104F4006008B1AFF30080A64856
:101B7000406800F00816A448C1684FF0081020EA39
:101B8000010506EA050020B104F4803008B1AFF386
:101B90000080A148006801282CD1A048006840B905
:101BA0009F480068012804D104F0100008B1AFF389
:101BB00000809A484030006848B999484030006831
:101BC000012804D104F4805008B1AFF30080954897
:101BD000006800F001169348083001684FF00110CA
:101BE00020EA010506EA050020B104F4003008B13E
:101BF000AFF300808C48006801282ED18748001D73
:101C0000006848B98648001D0068012804D104F026
:101C1000200008B1AFF3008080484430006848B924
:101C2000784844300068012804D104F4005008B119
:101C3000AFF300807B48006800F002167948083056
:101C400001684FF0021020EA010506EA050020B104
:101C500004F4003008B1AFF3008074480068012834
:101C60002ED16E480830006848B96D4808300068C9
:101C7000012804D104F0400008B1AFF300806748A8
:101C80004830006848B95F4848300068012804D1EE
:101C900004F4804008B1AFF300806248006800F0AF
:101CA00004166048083001684FF0041020EA01056E
:101CB00006EA050020B104F4003008B1AFF300805B
:101CC0005B48006801282ED154480C30006848B9A0
:101CD00053480C300068012804D104F0800008B19A
:101CE000AFF300804D484C30006848B945484C304F
:101CF0000068012804D104F4004008B1AFF300806B
:101D00004848006800F008164648083001684FF05F
:101D1000081020EA010506EA050020B104F40030AD
:101D200008B1AFF3008043480068012809D1424858
:101D3000006800F00F0020B104F4802008B1AFF378
:101D400000803C4808300068012809D13948EC3847
:101D50000068012804D104F4002008B1AFF300802A
:101D60003448001D0068012809D13248F038006865
:101D7000012804D104F4801008B1AFF300804FF0C3
:101D80001C40C068C0F3C01020B104F4800008B14A
:101D9000AFF3008029488669456806EA050000F02F
:101DA0007F0020B104F4000008B1AFF300802448A4
:101DB000066823481438056806EA050000F07F002D
:101DC00020B104F0807008B1AFF300801D480668B0
:101DD0001C481438056806EA050000F07F0020B1B1
:101DE00004F0007008B1AFF3008017480668164889
:101DF000143805682AE0000060120540B00BA642C6
:101E00000002A6420001A64200300540B013A642DF
:101E1000B01BA642B023A642B08BA6420082A642C7
:101E20000081A64204340540B093A642B09BA6426E
:101E3000B0A3A642008320421004014000200540C8
:101E40001824054018280540182C054006EA05000E
:101E500000F07F0020B104F0806008B1AFF3008093
:101E600070BD000010B52F4804682F48D0F8080254
:101E7000012808D12D480068012804D104F0010090
:101E800008B1AFF30080294838380068012809D12B
:101E9000264840300068012804D104F0020008B14F
:101EA000AFF3008022480068012809D1204878302B
:101EB0000068012804D104F0040008B1AFF30080E9
:101EC0001B4840300068012809D11948B830006823
:101ED000012804D104F0080008B1AFF300801548D0
:101EE0000068012809D1134820300068012804D176
:101EF00004F4001008B1AFF300800F48006B012814
:101F000004D104F4800008B1AFF300800B480068EE
:101F100000F4403020B104F4000008B1AFF30080B9
:101F200010BD000064120540000048428002484293
:101F3000088248420008A842008098420494044065
:101F400070B5AA48046800260025A9480068012841
:101F500008D1A8480068012804D104F0010008B1A4
:101F6000AFF30080A248001D0068012809D1A148F4
:101F7000001D0068012804D104F0020008B1AFF38D
:101F800000809B4808300068012809D19948083032
:101F90000068012804D104F0040008B1AFF3008008
:101FA00093480C300068012809D192480C30006831
:101FB000012804D104F0080008B1AFF300808C4878
:101FC00010300068012809D18A48103000680128C3
:101FD00004D104F0100008B1AFF30080844814303D
:101FE0000068012809D1834814300068012804D111
:101FF00004F0200008B1AFF300807D48183000687D
:10200000012809D17B4818300068012804D104F068
:10201000400008B1AFF3008075481C30006801280B
:1020200009D174481C300068012804D104F08000F4
:1020300008B1AFF300806E4820300068012809D154
:102040006C4820300068012804D104F4807008B185
:10205000AFF300806848406D00F44030C609664820
:10206000006F00F4C06506EA050020B104F40060CA
:1020700008B1AFF300806048406D00F44020C6090D
:102080005D48006F00F4C05506EA050020B104F475
:10209000805008B1AFF3008058480068012808D18B
:1020A00057480068012804D104F4803008B1AFF328
:1020B00000805248001D0068012809D15048001DC9
:1020C0000068012804D104F4003008B1AFF30080A7
:1020D0004A4808300068012809D14948083000689A
:1020E000012804D104F4802008B1AFF300804348F4
:1020F0000C300068012809D141480C3000680128E3
:1021000004D104F4002008B1AFF300803B48103044
:102110000068012809D13A4810300068012804D12C
:1021200004F4801008B1AFF3008034481430006824
:10213000012809D1324814300068012804D104F480
:10214000001008B1AFF300802C4818300068012857
:1021500009D12B4818300068012804D104F480000C
:1021600008B1AFF3008025481C300068012809D170
:1021700023481C300068012804D104F4000008B191
:10218000AFF300801D4820300068012809D11C48A9
:1021900020300068012804D104F0807008B1AFF34A
:1021A00000801848006800F44030C60915481C300B
:1021B000006800F4C06506EA050020B104F0006084
:1021C00008B1AFF300800F48006800F44020C60952
:1021D0000C481C30006800F4C05506EA050020B128
:1021E00004F0805008B1AFF3008070BD6812054064
:1021F000800A3042000E304200800140808A304226
:10220000008E30425484014070B55748046800265F
:10221000002556480068012808D155480068012863
:1022200004D104F0010008B1AFF300804F48001D55
:102230000068012809D14E48001D0068012804D11A
:1022400004F0020008B1AFF300804848083000688D
:10225000012809D1464808300068012804D104F05B
:10226000040008B1AFF3008040480C30006801283A
:1022700009D13F480C300068012804D104F008005F
:1022800008B1AFF30080394810300068012809D147
:10229000374810300068012804D104F0100008B15C
:1022A000AFF30080314814300068012809D130486C
:1022B00014300068012804D104F0200008B1AFF305
:1022C00000802A4818300068012809D128481830B1
:1022D0000068012804D104F0400008B1AFF3008089
:1022E00022481C300068012809D121481C300068B0
:1022F000012804D104F0800008B1AFF300801B482E
:1023000020300068012809D11948203000680128D0
:1023100004D104F4807008B1AFF300801548006860
:1023200000F44030C60913481C30006800F4C06552
:1023300006EA050020B104F4006008B1AFF30080A4
:102340000C48006800F44020C6090A481C300068A8
:1023500000F4C05506EA050020B104F4805008B12D
:10236000AFF3008070BD00006C120540800A31425E
:10237000000E31425488014070B500240026BA484E
:102380000568BA48D0F8804004F4805038B104F4AD
:10239000804020B105F0010008B1AFF3008004F4E3
:1023A000005038B104F4004020B105F0020008B13B
:1023B000AFF30080AD4890300468AC48D0F89C6022
:1023C00004EA0600C0B220B105F0040008B1AFF382
:1023D0000080A748046804F4805038B104F48040B9
:1023E00020B105F0080008B1AFF3008004F40050FC
:1023F00038B104F4004020B105F0100008B1AFF38B
:1024000000809B481030046899481C30066804EA34
:102410000600C0B220B105F0200008B1AFF3008083
:102420009448046804F4805038B104F4804020B12A
:1024300005F0400008B1AFF3008004F4005038B15B
:1024400004F4004020B105F0800008B1AFF3008033
:1024500088481030046887481C30066804EA060083
:10246000C0B220B105F4807008B1AFF3008082489B
:10247000046804F4805038B104F4804020B105F4BD
:10248000007008B1AFF3008004F4005038B104F4D8
:10249000004020B105F4806008B1AFF300807648B9
:1024A0001030046874481C30066804EA0600C0B2A4
:1024B00020B105F4006008B1AFF300806F480468F4
:1024C00004F4805038B104F4804020B105F4805009
:1024D00008B1AFF3008004F4005038B104F40040B8
:1024E00020B105F4005008B1AFF30080634810300C
:1024F000046862488038D0F89C6004EA0600C0B2E4
:1025000020B105F4804008B1AFF300805C48046856
:1025100004F4805038B104F4804020B105F48030D8
:1025200008B1AFF3008004F4005038B104F4004067
:1025300020B105F4003008B1AFF3008050481030EE
:1025400004684F481C30066804EA0600C0B220B197
:1025500005F4802008B1AFF300804A4800680128E4
:1025600010D149488069494900EA01044648406958
:1025700000EA010604EA060020B105F4002008B1D3
:10258000AFF3008042480468C66806F0200038B106
:1025900004F00B0020B105F4800008B1AFF3008017
:1025A00006EA040000F0200020B105F4000008B1A4
:1025B000AFF3008006EA040000F0800020B105F0CF
:1025C000807008B1AFF3008006EA040000F040001C
:1025D00020B105F0007008B1AFF3008006F00200F2
:1025E00038B104F4807020B105F0806008B1AFF319
:1025F00000802848046827480C30066806F0200050
:1026000038B104F00B0020B105F0006008B1AFF361
:10261000008006EA040000F0200020B105F08050A0
:1026200008B1AFF3008006EA040000F0800020B19A
:1026300005F0005008B1AFF3008006EA040000F096
:10264000400020B105F0804008B1AFF3008006F0F3
:10265000020038B104F4807020B105F0004008B1E8
:10266000AFF3008070BD00007C12054000500140B7
:102670008054014080580140805C014080600140EE
:10268000806401400001804300000C40FBFC7CF7AB
:1026900000D0014000D4014070B5002400269948C4
:1026A000056899480468C66806F0200038B104F04F
:1026B0000B0020B105F0010008B1AFF3008006EA7D
:1026C000040000F0200020B105F0020008B1AFF3D3
:1026D000008006EA040000F0800020B105F004004C
:1026E00008B1AFF3008006EA040000F0400020B11A
:1026F00005F0080008B1AFF3008006F0020038B121
:1027000004F4807020B105F0100008B1AFF3008030
:102710007E4804687D480C30066806F0200038B119
:1027200004F00B0020B105F0200008B1AFF30080E9
:1027300006EA040000F0200020B105F0400008B1D6
:10274000AFF3008006EA040000F0800020B105F03D
:10275000800008B1AFF3008006EA040000F04000FA
:1027600020B105F4807008B1AFF3008006F00200DC
:1027700038B104F4807020B105F4007008B1AFF3F3
:10278000008063484468466904F4806038B106F00C
:10279000800020B105F4006008B1AFF3008004F4BC
:1027A000007038B106F0200020B105F4805008B167
:1027B000AFF3008004F4006038B106F0010020B9E6
:1027C00005F4005008B1AFF3008004F4807038B114
:1027D00006F01D0020B105F4804008B1AFF3008081
:1027E0004C4804684B481030066804F4806038B1E7
:1027F00006F0800020B105F4803008B1AFF300800E
:1028000004F4007038B106F0200020B105F4003067
:1028100008B1AFF3008004F4006038B106F00100A5
:1028200020B905F4802008B1AFF3008004F4807073
:1028300038B106F01D0020B105F4002008B1AFF357
:10284000008035484468466904F4806038B106F079
:10285000800020B105F4001008B1AFF3008004F44B
:10286000007038B106F0200020B105F4800008B1F6
:10287000AFF3008004F4006038B106F0010020B925
:1028800005F4000008B1AFF3008004F4807038B1A3
:1028900006F01D0020B105F0807008B1AFF3008094
:1028A0001E4804681D481030066804F4806038B182
:1028B00006F0800020B105F0806008B1AFF3008021
:1028C00004F4007038B106F0200020B105F000607B
:1028D00008B1AFF3008004F4006038B106F00100E5
:1028E00020B905F0805008B1AFF3008004F4807087
:1028F00038B106F01D0020B105F0005008B1AFF36B
:10290000008070BD8012054000100240001402409B
:1029100000C0014004C40140000002400404024021
:1029200070B500248A4805688A48048B05F00100C8
:1029300038B104F0100020B104F0400008B1AFF34A
:10294000008005F0020038B104F0200020B104F04E
:10295000800008B1AFF300807E48848B05F004004E
:1029600038B104F0100020B104F0400008B1AFF31A
:10297000008005F0080038B104F0200020B104F018
:10298000800008B1AFF300807248048C05F010009D
:1029900038B104F0100020B104F0400008B1AFF3EA
:1029A000008005F0200038B104F0200020B104F0D0
:1029B000800008B1AFF3008066484830048805F015
:1029C000400038B104F4807020B104F4007008B104
:1029D000AFF3008005F0800038B104F4005020B15E
:1029E00004F4804008B1AFF300805A48A430048852
:1029F00005F4807040B104F00100C04320B104F040
:102A0000100008B1AFF3008005F4007040B104F08D
:102A10000200C04320B104F4807008B1AFF300801D
:102A200005F4806040B104F00400C04320B104F418
:102A3000805008B1AFF300804748048805F4803027
:102A400038B104F0100020B104F0400008B1AFF339
:102A5000008005F4003038B104F0200020B104F00B
:102A6000800008B1AFF300803B48001D048805F4E6
:102A7000802038B104F0100020B104F0400008B10B
:102A8000AFF3008005F4002038B104F0200020B13D
:102A900004F0800008B1AFF300802F4808300488AC
:102AA00005F4801038B104F0100020B104F04000AB
:102AB00008B1AFF3008005F4001038B104F0200035
:102AC00020B104F0800008B1AFF30080224830301C
:102AD000048805F4800038B104F4807020B104F457
:102AE000007008B1AFF3008005F4000038B104F4C1
:102AF000005020B104F4804008B1AFF300801648C4
:102B00008C30048805F0807040B104F00100C043AF
:102B100020B104F0100008B1AFF3008005F00070A0
:102B200040B104F00200C04320B104F4807008B149
:102B3000AFF3008005F0806040B104F00400C043B2
:102B400020B104F4805008B1AFF3008070BD0000E4
:102B500084120540007001401848024070B50024FE
:102B6000464805684648048805F0010038B104F07D
:102B7000100020B104F0400008B1AFF3008005F070
:102B8000020038B104F0200020B104F0800008B148
:102B9000AFF300803A48001D048805F0040038B106
:102BA00004F0100020B104F0400008B1AFF3008041
:102BB00005F0080038B104F0200020B104F08000D6
:102BC00008B1AFF300802E480830048805F01000EB
:102BD00038B104F0100020B104F0400008B1AFF3A8
:102BE000008005F0200038B104F0200020B104F08E
:102BF000800008B1AFF3008021483030048805F030
:102C0000400038B104F4807020B104F4007008B1C1
:102C1000AFF3008005F0800038B104F4005020B11B
:102C200004F4804008B1AFF3008015488C3004886C
:102C300005F4807040B104F00100C04320B104F0FD
:102C4000100008B1AFF3008005F4007040B104F04B
:102C50000200C04320B104F4807008B1AFF30080DB
:102C600005F4806040B104F00400C04320B104F4D6
:102C7000805008B1AFF3008070BD0000881205409D
:102C8000184C024070B57A4804680026002579483F
:102C9000006800F00F0677480830006800F00F0564
:102CA00006EA050020B104F0400008B1AFF300804F
:102CB00070482030006800F00F066E482830006829
:102CC00000F00F0506EA050020B104F0800008B10D
:102CD000AFF3008067484030006800F00F06654899
:102CE0004830006800F00F0506EA050020B104F442
:102CF000807008B1AFF300805E486030006800F07B
:102D00000F065C486830006800F00F0506EA050011
:102D100020B104F4007008B1AFF300805648406859
:102D2000012809D1544880300068012804D104F4F6
:102D3000803008B1AFF300804F48C068012809D146
:102D40004D4884300068012804D104F4003008B1F3
:102D5000AFF3008048480069012809D147488068DE
:102D600000F0030020B104F4802008B1AFF300802C
:102D700043484068012809D1414880300068012853
:102D800004D104F4002008B1AFF300803C48C068CF
:102D9000012809D13A4884300068012804D104F49C
:102DA000801008B1AFF3008035480069012809D1CF
:102DB0003448006800F0030020B104F4001008B1AA
:102DC000AFF3008030484068012809D12E48803098
:102DD0000068012804D104F4800008B1AFF300803A
:102DE0002948C068012809D1274884300068012893
:102DF00004D104F4000008B1AFF300802248006958
:102E0000012809D12148806800F0030020B104F0B6
:102E1000807008B1AFF300801D484068012809D1D7
:102E20001B4880300068012804D104F0007008B10C
:102E3000AFF300801648C068012809D114488430D7
:102E40000068012804D104F0806008B1AFF300806D
:102E50000F480069012809D10E48006800F00300FE
:102E600020B104F0006008B1AFF3008070BD000035
:102E70008C1205400C7C014000003C4200E0014007
:102E800000803C4208E4014000004442002002402F
:102E9000008044420824024070B587480468002638
:102EA00000258648D0F89800012808D18448006899
:102EB000012804D104F0100008B1AFF300807F486E
:102EC0008C300068012809D17D480C380068012841
:102ED00004D104F0200008B1AFF3008077489C30A3
:102EE0000068012809D17648001D0068012804D136
:102EF00004F0400008B1AFF30080724840687249A6
:102F000000EA01066F48C06900EA010506EA05000B
:102F100020B104F0800008B1AFF300806B48006876
:102F2000012808D16A480068012804D104F480709F
:102F300008B1AFF3008065480C380068012809D15A
:102F400063480C380068012804D104F4007008B10B
:102F5000AFF300805D48001D0068012809D15C487E
:102F6000001D0068012804D104F4806008B1AFF3AB
:102F7000008058480068544900EA01065548183056
:102F8000006800EA010506EA050020B104F40060CB
:102F900008B1AFF3008050480068012808D14F48BD
:102FA0000068012804D104F4805008B1AFF3008018
:102FB00049480C380068012809D148480C38006895
:102FC000012804D104F4005008B1AFF30080424856
:102FD000001D0068012809D14048001D0068012833
:102FE00004D104F4804008B1AFF300803C4800688D
:102FF000354900EA01063A481830006800EA010540
:1030000006EA050020B104F4004008B1AFF30080E7
:1030100034480068012808D133480068012804D1E9
:1030200004F4003008B1AFF300802E48103000687F
:10303000012809D12C4810300068012804D104F47B
:10304000802008B1AFF3008028480068012809D12A
:10305000264880300068012804D104F4801008B1AB
:10306000AFF300802148001D0068012809D11F48E6
:1030700084300068012804D104F4001008B1AFF3D3
:1030800000801A4808300068012809D117488830A4
:103090000068012804D104F4800008B1AFF3008077
:1030A0001348406800F4403020B104F4000008B137
:1030B000AFF3008070BD00009012054000009C42FC
:1030C00098039C4200E004401752F00098809C4214
:1030D00098839C4204E4044098009D4298039D42DA
:1030E00004E804406082A842241CA8420083904265
:1030F0000090044070B53C48046800253B480068D7
:10310000012809D1394820380068012804D104F089
:10311000010008B1AFF300803448001D00680128A9
:1031200009D132481C380068012804D104F002009B
:1031300008B1AFF300802E4805882E4800680128AA
:1031400009D12D480068012800D025B104F0040001
:1031500008B1AFF3008027480068012809D126484C
:103160000068012800D025B104F0080008B1AFF3D1
:10317000008022480068012809D1204820380068D2
:10318000012804D104F0100008B1AFF300801B48FF
:10319000001D0068012809D118481C380068012862
:1031A00004D104F0200008B1AFF300801448006897
:1031B000012809D113480088C0F3080020B104F0A9
:1031C000400008B1AFF300800D480068012809D124
:1031D0000C480088C0F3080020B104F0800008B15A
:1031E000AFF3008070BD000094120540E0088042FB
:1031F000B00004402014804240168042E0888042A3
:1032000020948042B00404402DE9F05F0026B346CC
:10321000002400250027A046A146A2463A4800689F
:1032200001281AD13948078838480830B0F800809A
:10323000801FB0F8009035480A30B0F800A007EAC7
:10324000080040F2F711084028B909EA0A0040F2E4
:103250007F11084008B1AFF300802B480C300068A4
:10326000012815D12A48078EB0F83880B0F832907E
:10327000B0F83AA007EA080040F2F711084028B970
:1032800009EA0A0040F27F11084008B1AFF300805C
:103290001D4810300068012834D11E480678401EB1
:1032A00090F800B0801C04781A481A30057805F0B0
:1032B000200028BB06F0010010BB06EA0B0000F05E
:1032C000FE00E8B904F0010010B104F00200B8B942
:1032D00004F0040010B104F0080088B904F01000F4
:1032E00010B104F0200058B905F0080010B105F045
:1032F000100028B905F0400020B105F0800008B1A9
:10330000AFF30080BDE8F09F0853A24230FC0640B6
:1033100000000740A504074010B5AFF3008010BDC2
:1033200010B5AFF3008010BD00F01F0201219140E5
:10333000024A430942F823107047000080E200E08F
:1033400000F01F02012191404209920002F1E022A7
:10335000C2F800117047000010B5002807DA0A070C
:10336000140E054A00F00F031B1FD45403E00A0794
:10337000130E024A135410BD18ED00E000E400E003
:10338000F0B505460F461346002400F0B3F800BF21
:1033900057E00120A0403840002850D02C4800EBD6
:1033A000851000EB84022A48801C00EB851000EB9E
:1033B00084065978108861F38E30108099781088CF
:1033C00061F30C301080D978108861F349201080A7
:1033D0001979108861F3861010809979108861F34B
:1033E000820010805979108861F3051010801878D8
:1033F00020B101280BD002281AD112E0108820F445
:1034000000401080108820F00200108011E0108829
:1034100020F400401080108820F00200801C1080F2
:1034200007E0108820F4004000F50040108000E024
:1034300000BF00BFD979308861F308203080601C5C
:10344000C4B2102CA5D300F005F80020F0BD000098
:10345000003C05404FF425400149088070470000BA
:10346000FC3B054010B502460448102404FB02034F
:10347000188808431880002010BD00000A38054055
:1034800010B502460448102404FB020318880843C0
:103490001880002010BD000008380540F0B5044633
:1034A0000D4616461F46002300F024F8002319E0BD
:1034B00001209840284098B10D48402101FB0400AC
:1034C000042101FB0302108866F305001080012F20
:1034D00001D1012000E00020118860F30821118053
:1034E000581CC3B2102BE3D3FFF7B4FF0020F0BD8C
:1034F000023C05404AF20150014908807047000033
:10350000FC3B0540012905D1054A52688243044B22
:103510005A6004E0024A52680243014B5A60704705
:1035200000800440012905D1054A92688243044B7A
:103530009A6004E0024A92680243014B9A60704725
:103540000080044010B5AFF3008010BD10B5AFF39C
:10355000008010BD2DE9F04F87B004468B46002651
:10356000B14600BF0020069000254FF0FF3A04202E
:1035700005903E48844208D03D48844205D03D48ED
:10358000844202D03C4884426BD1204601F004FBC7
:103590000646002E65D0D9464846FCF71CFF4FF082
:1035A00081410190FCF7E5FE03903046FCF713FFE4
:1035B00002900399FCF78CFF4FF07E510490FCF7CA
:1035C00081FF06900698FCF7C1FF0546002106988A
:1035D000FCF706FF45D3FF2D43D800200590284671
:1035E000FCF7F9FE03900699FCF76FFF234904905E
:1035F000FCF7C0FF21D200206A1C40410021A2FB41
:10360000097300FB093002FB01084FF480610020C0
:10361000A7FB012308FB013107FB0010CDE90220C5
:1036200032460023DDE90201FCF760FEB0F1800ABA
:10363000BAF17F0F01D904200590059888B9BAF135
:103640007F0F01D8012100E00021E06861F35D7087
:10365000E060A0686AF30600A060A06865F30F2030
:10366000A060059807B0BDE8F08F000000D00140D1
:1036700000D401400010024000140240ACC52737BE
:103680002DE9F34F8DB004460026B146B246002026
:103690000C9000BF00254FF0FF3B4B4B0FCB08AF0A
:1036A0000FC7042007904948844208D04848844204
:1036B00005D04848844202D04748844272D120460F
:1036C00001F06AFA8146B9F1000F79D00E9E606967
:1036D000C0F3425008A931F810A05046FCF77BFE19
:1036E00002903046FCF777FE01900299FCF741FE0C
:1036F0004FF080410390FCF73CFE05904846FCF7F4
:103700006AFE04900599FCF7E3FE4FF07E510690A7
:10371000FCF7D8FE0C900C98FCF718FF054600212A
:103720000C98FCF75DFE4BD3FF2D49D80020079085
:103730002846FCF750FE05900C99FCF7C6FE274979
:103740000690FCF717FF26D200206A1C4041002398
:10375000A2FB061C00FB06C002FB03021846A1FBED
:103760000A7302FB0A3201FB00284FF400710022A9
:10377000A7FB010308FB013107FB02114A460023A6
:10378000CDE90401FCF7B2FDB0F1800BBBF17F0F76
:1037900001D904200790079820B9BBF17F0F02D808
:1037A000012101E00CE00021E06861F35D70E06060
:1037B000A0686BF30600A060A06865F30F20A0600E
:1037C00007980FB0BDE8F08F944D000000D0014085
:1037D00000D401400010024000140240ACC527375D
:1037E0002DE9F34F89B004460026B146B2460020C9
:1037F000089000BF00254FF0FF3B042007904F4882
:10380000844208D04E48844205D04E48844202D0BB
:103810004D4884427ED1204601F0BEF98146B9F17F
:10382000000F77D00A9EE068C0F3C03A5046FCF71C
:10383000D2FD4FF080410190FCF747FE03903046E7
:10384000FCF7C9FD4FF082410190FCF792FD029018
:103850000399FCF78EFD05904846FCF7BCFD0490EB
:103860000599FCF735FE4FF07E510690FCF72AFED5
:1038700008900898FCF76AFE054600210898FCF7B6
:10388000AFFD57D3FF2D55D8002007902846FCF7F1
:10389000A2FD05900899FCF718FE2C490690FCF74C
:1038A00069FE31D2002210461346DAF1020260EBC3
:1038B000030300214FF0010C15EB0C0C4941A2FB56
:1038C0000C0E03FB0CE302FB01320021A0FB06738C
:1038D00002FB063200FB01284FF400610020A7FB29
:1038E000012308FB013107FB0010CDE904204A4603
:1038F0000023DDE90401FCF7F9FCB0F1800BBBF11A
:103900007F0F01D904200790079818B9BBF17F0FEA
:1039100003D800E00EE0012100E00021E06861F33F
:103920005D70E060A0686BF30600A060A06865F3BE
:103930000F20A06007980BB0BDE8F08F00D00140C9
:1039400000D401400010024000140240ACC52737EB
:1039500010B5AFF3008010BD00B589B000BF0020E6
:10396000039000BF00BF0190029000BF00BF142170
:1039700004A8FCF7F3FC00BF00208DF80400012030
:103980008DF8050000208DF8060001208DF8070055
:1039900002208DF808008DF8090001208DF80A003A
:1039A00001A8FDF7F9F80120FCF77CFF0220089040
:1039B0003220079002200490059006900120FDF728
:1039C00061F804A8FDF716F8FDF77EF90520FDF76C
:1039D00071F90120FDF758F9FDF760F90120FCF7B6
:1039E000C1FF00BF0220FCF721FF0128FAD105200A
:1039F000FDF768F81248FCF785FE1148C0681149C8
:103A000008600F480069104908600D4840690F4977
:103A100008600B4880690E4908600948C0690D4973
:103A20000860074880680C490860054840680B49F1
:103A30000860034800680A49086009B000BD00003A
:103A40004082FF1F0C80FF1F1080FF1F1480FF1F8C
:103A50001880FF1F1C80FF1F2080FF1F2480FF1F76
:103A60002880FF1F70B500241320012100220023AD
:103A7000294D2D7805F00704062C4AD2DFE804F022
:103A800003070B101419254D254E356041E0254DD7
:103A9000234E35603DE04FF40045214E356038E05F
:103AA000204D1F4E356034E04FF400451C4E35600C
:103AB0002FE0194DDA352D68C5F3C013164D263D9C
:103AC000D5F80051C5F30820134DDA352D68290FBC
:103AD000114D263DD5F8005105F01F025BB9551C6C
:103AE000104EB6FBF5F5461C75434E1CB5FBF6F5BE
:103AF0000B4E35600CE0012B0AD1551C074EB6FB6E
:103B0000F5F5461C75434E1CB5FBF6F5044E3560C5
:103B100000BF00BF70BD0000264005400024F40037
:103B20000080FF1F00127A0000B5FFF79BFF00BD69
:103B30002DE9F84304460E4615464FF000080027CD
:103B4000002D7DD0FE48844201D106B900BF206916
:103B5000009960F30001009120694108009861F329
:103B60004100009020698108009861F38200009074
:103B7000207C8DF8000020690109009861F307108E
:103B800000902069010A009861F3082000902069E4
:103B9000410A009861F3492000902069810A009849
:103BA00061F38A200090607C8DF801002069010B90
:103BB000009861F30C3000902069410B009861F38C
:103BC0004D3000902069810B009861F38E30009099
:103BD0002069C10B009861F3CF3000902069010C7F
:103BE000009861F3104000902069410C009861F347
:103BF000514000902069810C009861F39240009040
:103C0000A07C8DF802002069010D009861F3175027
:103C100000902069010E009861F3186000902069FF
:103C2000410E009861F3596000902069810E009860
:103C300061F39A600090E07C8DF80300206900E059
:103C40006BE2010F009861F31C7000902069410F36
:103C5000009861F35D7000902069810F009861F316
:103C60009E7000902069C10F009861F3DF70009092
:103C700026B900986FF30F00009002E0009880B220
:103C800000900098216960F30001216100984108CB
:103C9000206961F34100206100988108206961F387
:103CA000820020619DF800002074009801092069BD
:103CB00061F3071020610098010A206961F3082070
:103CC00020610098410A206961F349202061009831
:103CD000810A206961F38A2020619DF801106174D6
:103CE0000098010B206961F30C3020610098410BB2
:103CF000206961F34D3020610098810B206961F3E8
:103D00008E3020610098C10B206961F3CF302061B3
:103D10000098010C206961F3104020610098410C6B
:103D2000206961F3514020610098810C206961F3A2
:103D3000924020619DF80210A1740098010D206945
:103D400061F3175020610098010E206961F318603B
:103D500020610098410E206961F35960206100984C
:103D6000810E206961F39A6020619DF80310E1746F
:103D70000098010F206961F31C7020610098410FC9
:103D8000206961F35D7020610098810F206961F303
:103D90009E7020610098C10F206961F3DF7020617F
:103DA000012231462046FCF779FC07E038467F1CAB
:103DB000B0F5A04F02D94FF0090803E0009821693F
:103DC0008842F3D100BF16B1012E7DD1D4E0E8784E
:103DD00010B101280CD105E06978009861F3492001
:103DE000009006E0A978009861F38A20009000E036
:103DF00000BF00BF2978009861F307100090009879
:103E0000216960F30001216100984108206961F394
:103E10004100206100988108206961F382002061DF
:103E20009DF80000207400980109206961F30710D3
:103E300020610098010A206961F308202061009840
:103E4000410A206961F3492020610098810A2069B4
:103E500061F38A2020619DF8011061740098010BC4
:103E6000206961F30C3020610098410B206961F3F7
:103E70004D3020610098810B206961F38E30206104
:103E80000098C10B206961F3CF3020610098010CCC
:103E9000206961F3104020610098410C206961F3B2
:103EA000514020610098810C206961F392402061AB
:103EB0009DF80210A1740098010D206961F317505C
:103EC00020610098010E00E025E1206961F318608F
:103ED00020610098410E206961F3596020610098CB
:103EE000810E206961F39A6020619DF80310E174EE
:103EF0000098010F206961F31C7020610098410F48
:103F0000206961F35D7020610098810F206961F381
:103F10009E7020610098C10F206961F3DF702061FD
:103F2000012231462046FCF7B9FBA888A060012297
:103F300031462046FCF7B2FBE978206902E0000038
:103F40000040024061F308202061012231462046F2
:103F5000FCF7A4FB002707E038467F1CB0F5A04F14
:103F600002D94FF0090805E0E8782169C1F3002182
:103F70008842F1D100BFCFE0E87810B101280CD120
:103F800005E06978009861F35960009006E0A9782F
:103F9000009861F39A60009000E000BF00BF2978AC
:103FA000009861F3175000900098216960F30001B8
:103FB000216100984108206961F341002061009867
:103FC0008108206961F3820020619DF8000020745F
:103FD00000980109206961F3071020610098010A27
:103FE000206961F3082020610098410A206961F38B
:103FF000492020610098810A206961F38A202061AC
:104000009DF8011061740098010B206961F30C3078
:1040100020610098410B206961F34D3020610098C8
:10402000810B206961F38E3020610098C10B2069FB
:1040300061F3CF3020610098010C206961F31040DA
:1040400020610098410C206961F351402061009883
:10405000810C206961F3924020619DF80210A174E7
:104060000098010D206961F3175020610098010E3E
:10407000206961F3186020610098410E206961F3A6
:10408000596020610098810E206961F39A60206177
:104090009DF80310E1740098010F206961F31C7012
:1040A00020610098410F206961F35D7020610098E4
:1040B000810F206961F39E7020610098C10F206913
:1040C00061F3DF702061012231462046FCF7E6FAF9
:1040D000A888E060012231462046FCF7DFFAE97843
:1040E000206961F318602061012231462046FCF707
:1040F000D5FA002707E038467F1CB0F5A04F02D95B
:104100004FF0090805E0E8782169C1F300618842B1
:10411000F1D100BF00E000BF01E04FF004084046CD
:10412000BDE8F8832DE9F04104460E4615464FF0F0
:104130000008002716B1012E32D118E0206965F37E
:1041400000002061012231462046FCF7A7FA07E073
:1041500038467F1CB0F5A04F02D94FF0090804E0A3
:10416000206900F00100A842F2D100BF19E02069E7
:1041700065F310402061012231462046FCF78EFA9B
:1041800007E038467F1CB0F5A04F02D94FF0090870
:1041900004E02069C0F30040A842F2D100BF00E073
:1041A00000BF00BF4046BDE8F0810246002011B1CB
:1041B000012908D103E01369C3F3002004E0136967
:1041C000C3F3006000E000BF00BF70472DE9F0417D
:1041D00004460E4615464FF00008002716B1012E82
:1041E00032D118E0206965F3820020610122314656
:1041F0002046FCF753FA07E038467F1CB0F5A04F85
:1042000002D94FF0090804E02069C0F38000A842F9
:10421000F2D100BF19E0206965F3924020610122CC
:1042200031462046FCF73AFA07E038467F1CB0F5E5
:10423000A04F02D94FF0090804E02069C0F3804084
:10424000A842F2D100BF00E000BF00BF4046BDE879
:10425000F081000016480078401C15490870154888
:104260000078401C1349087013480078401C12491C
:1042700008700F480078022805DB00200C49087000
:1042800001200E4908700B480078052805DB002046
:104290000849087001200A490870074800780A2870
:1042A00005DB0020044908700120064908707047AA
:1042B0003080FF1F3180FF1F3280FF1F3380FF1FC0
:1042C0003480FF1F3580FF1F10B58CB000BF002069
:1042D0000290039000BF00BF0090019000BF04A8AF
:1042E000FCF710FA089C01210220FFF71BF90020BF
:1042F0008DF80B008DF809000A208DF80800184889
:10430000B4FBF0F0401E80B2ADF80C0002AA01210F
:104310001448FFF70DFC012211461248FFF756FF23
:104320000A20ADF802004320ADF800000E480190CD
:10433000684600F091FCBDF90200FEF7F5FFBDF9FB
:1043400002000F21FFF708F8BDF90200FEF7F8FFA1
:10435000012211460348FFF7E5FE0CB010BD000036
:1043600040420F00004402405542000030B585B085
:1043700000244FF070654A4A07CA8DE80700012102
:104380002846FFF7BFF80023212210210420FFF761
:1043900085F80023202211460420FFF77FF86946A4
:1043A000404800F035FA04460CB100BFFEE74FF478
:1043B000E1313C4800F0F8F904460CB100BFFEE7DB
:1043C0000020ADF80E003848049040F22110ADF8FE
:1043D0000C0003A800F040FCBDF90E000F21FEF711
:1043E000BBFFBDF90E00FEF79FFFBDF90E00FEF703
:1043F000A7FF0120ADF80E002C4804904FF49070F8
:10440000ADF80C0003A800F027FCBDF90E000F2149
:10441000FEF7A2FFBDF90E00FEF786FFBDF90E0004
:10442000FEF78EFF0220ADF80E00214804904FF4F5
:104430009170ADF80C0003A800F00EFCBDF90E0061
:104440000F21FEF789FFBDF90E00FEF76DFFBDF9E4
:104450000E00FEF775FF0320ADF80E00154804901E
:1044600040F22310ADF80C0003A800F0F5FBBDF9F5
:104470000E000F21FEF770FFBDF90E00FEF754FF8E
:10448000BDF90E00FEF75CFF01220021054800F097
:1044900055F801221146034800F050F805B030BD30
:1044A000A44D000000100240CD4B0000554B000011
:1044B000114C0000F54B0000024604201B4B9A42B1
:1044C00008D01B4B9A4205D01A4B9A4202D01A4B85
:1044D0009A4229D10020012907D002290CD00829AD
:1044E00011D0B1F5807F1CD114E0D36823F4803360
:1044F00003F58033D36016E0D36823F4003303F56B
:104500000033D3600FE0D36823F4002303F50023C6
:10451000D36008E0D36823F4801303F58013D360DD
:1045200001E0042000BF00BF7047000000D0014040
:1045300000D40140001002400014024078B5034648
:1045400004208B4DAB4208D08A4DAB4205D08A4D3A
:10455000AB4202D0894DAB427DD100200F297BD2E6
:10456000DFE801F0080D12171C2126353A2B30EA3E
:10457000F2F7FC00DD6862F38205DD60F5E0DD68DE
:1045800062F34515DD60F0E0DD6862F3C305DD60D0
:10459000EBE0DD6862F3C715DD60E6E0DD6862F33D
:1045A0000005DD60E1E0DD6862F34105DD60DCE02F
:1045B000DD6862F30415DD60D7E0DD6862F38A250B
:1045C000DD60D2E0DD6862F39E75DD60CDE0DD6820
:1045D00062F38615DD60C8E0DD68009E65F30006C5
:1045E0000096DD686E08009D66F341050095DD6864
:1045F000AE08009D66F382050095DD68EE08009D1B
:1046000066F3C3050095DD682E09009D66F3041569
:104610000095DD686E09009D66F345150095DD681F
:10462000AE09009D66F386150095DD68EE09009DD4
:1046300066F3C71500959D892E0A009D66F308252F
:104640000095DD686E0A009D66F349250095DD68DA
:10465000AE0A009D01E089E085E066F38A250095B9
:104660009D89EE0A009D66F3CB250095DD682E0B33
:10467000009D66F30C3500959D896E0B009D66F3D9
:104680004E350095DD68EE0B009D66F3CF35009545
:10469000DD682E0C009D66F310450095DD686E0CFC
:1046A000009D66F351450095DD68AE0C009D66F3F4
:1046B00092450095DD68EE0C009D66F3D3450095AC
:1046C000DD682E0D009D66F314550095DD686E0DB6
:1046D000009D66F357550095DD682E0E009D66F32C
:1046E00018650095DD686E0E009D66F35B650095AC
:1046F000DD682E0F009D66F31C750095DD686E0F5A
:10470000009D66F35D750095DD68AE0F009D66F354
:104710009E750095DD68EE0F009D66F3DF750095D0
:10472000009D62F3C3050095009D62F3C7150095D7
:104730006C462568DD6018E0DD6862F35D75DD605C
:1047400013E00BE005E0FFE71D6962F300051D6162
:104750000BE05D6962F345155D6106E05D6962F33A
:1047600049255D6101E0042000BF00BF78BD000065
:1047700000D0014000D4014000100240001402406B
:1047800002461068084008B1012070470020FCE78D
:1047900001464868C0F3084070470246506861F31C
:1047A000080050600020704770B504460D4604268E
:1047B0001348844208D01348844205D012488442EA
:1047C00002D01248844218D16069C0F3401028B169
:1047D00029462046FEF754FF06460EE0E068C0F387
:1047E000006028B129462046FEF7B4FE064604E0E4
:1047F00029462046FEF7F4FF0646304670BD00000D
:1048000000D0014000D401400010024000140240DA
:104810001FB50246002303930293019300930420E3
:10482000A34B9A4208D0A34B9A4205D0A24B9A427E
:1048300002D0A24B9A427DD100297BD06FF00C03AD
:10484000D360DB07D3600023136153614FF6FF731E
:10485000936000239361009B23F020030093029B4D
:1048600023F0807302934C78039B64F3010303935A
:104870008C78029B64F30C330293CC78029B64F334
:104880001C7302930C79019B64F34D3301930C78F4
:10489000019B64F3CC2301934B7923B1012B07D007
:1048A000022B1DD10FE0029B23F48063029318E0DA
:1048B000029B23F400730293029B23F4806303F5AD
:1048C000806302930DE0029B23F4007303F50073F1
:1048D0000293029B23F4806303F58063029300E05C
:1048E00000BF00BF0C7A009B64F349230093CC798E
:1048F000029B64F3DF7302938C79029B64F3CF33E2
:104900000293039B946963F301049461039B936195
:10491000029BD46863F30004D460029B5C08D368F4
:1049200064F34103D360029B9C08D36864F3820361
:10493000D36000E0BAE0029BDC08D36864F3C303F1
:10494000D360029B1C09D36864F30413D360029BF9
:104950005C09D36864F34513D360029B9C09D36858
:1049600064F38613D360029BDC09D36864F3C71336
:10497000D3609DF809405473029B5C0AD36864F3CA
:104980004923D360029B9C0AD36864F38A23D360D3
:104990009DF809405473029B1C0BD36864F30C33DD
:1049A000D3609DF809405473029BDC0BD36864F319
:1049B000CF33D360029B1C0CD36864F31043D360E5
:1049C000029B5C0CD36864F35143D3609DF80A40AA
:1049D0009473029BDC0CD36864F3D343D360029BD3
:1049E0001C0DD36864F31453D3609DF80A4094738C
:1049F000029B1C0ED36864F31863D3609DF80B40D0
:104A0000D473029B1C0FD36864F31C73D360029BA6
:104A10005C0FD36864F35D73D360029B9C0FD36813
:104A200064F39E73D360029BDC0FD36864F3DF737F
:104A3000D360019B146963F300041461BDF8043072
:104A40001382019BDC0A136964F3CC231361019B7D
:104A50005C0B136964F34D331361BDF80540A2F894
:104A600011409DF80740D4749DF800301375009BE9
:104A70005C09536964F345135361BDF800309382B8
:104A8000009B5C0A536964F34923536102F11403E8
:104A9000BDF80140A2F81540009B5C0D536964F31A
:104AA000575353619DF80340D475002004B010BDE6
:104AB00000D0014000D40140001002400014024028
:104AC00010B500240E4800780E49087006E00E4824
:104AD000005D401C0D490855601CC4B208480178AF
:104AE0000078401E064A10700029F0D100201146BF
:104AF0000870012208210648FFF720FD10BD0000C4
:104B00003980FF1F3B80FF1F6082FF1FA082FF1FB5
:104B10000010024010B50A48007880B109480078BA
:104B2000401C0849087008460078022807DB00206E
:104B300008700349087004490870FFF7C1FF10BDF1
:104B40003780FF1F3880FF1F3A80FF1F10B5AFF37B
:104B5000008010BD10B502210E48FFF711FE01289C
:104B600003D102210B48FFF7A7FC01210948FFF7F9
:104B700007FE012803D101210648FFF79DFC08210B
:104B80000448FFF7FDFD012803D108210148FFF784
:104B900093FC10BD0010024010B501460022002019
:104BA000084B1B6AC3F302140123A340064C24687C
:104BB000B4FBF3F28B699B075C0F0123A340B2FBAC
:104BC000F3F010BD004005400080FF1F10B50748FE
:104BD000FFF7DEFD0649087008460078401C0870A3
:104BE000012208210148FFF7A9FC10BD0010024076
:104BF0003680FF1F10B5002207210448FFF79EFCF6
:104C0000002202210148FFF799FC10BD001002406C
:104C100010B5084801780848FFF7BFFD00220321BE
:104C20000548FFF78BFC012207210348FFF786FCAC
:104C300010BD00003680FF1F0010024002E008C8CF
:104C4000121F08C1002AFAD17047002001E001C1FB
:104C5000121F002AFBD1704770B5014600240B8853
:104C6000DD1703EBD5656D1105EB4505202606EB39
:104C70004505B1F90260B5420DDC0888C51700EBA7
:104C8000D5656D1105EB4505252606EB4505B1F902
:104C90000260B54205DAB1F90250202D01DB04248F
:104CA00018E048880C4B042515FB00321068C0F34F
:104CB000080040F2FF1398420BD10B88106863F391
:104CC00008001060B1F90230044D486845F823002F
:104CD00000E00724204670BD5C1005404080FF1FA7
:104CE00010B524480088401C2249088008460088E6
:104CF00032283DD1002008801F480088401C1E49F2
:104D0000088008460088042801DB002008801A4833
:104D1000008830B101280ED0022815D0032826D1F2
:104D20001BE04FF400710120FEF79CFB40210420A2
:104D3000FEF7A6FB1BE040210420FEF793FB802139
:104D40000020FEF79DFB12E080210020FEF78AFB89
:104D500020210120FEF794FB09E020210120FEF72D
:104D600081FB4FF400710120FEF78AFB00BF00BFFA
:104D700010BD00000480FF1F0680FF1FFEF7ECFD42
:104D8000FBF7ACFFFFF7F2FAFFF79EFA00BFFBF765
:104D900063FCFCE7200040005D008000BA000001D9
:104DA000740100020000000000000101000000008A
:104DB000D04D00000080FF1F400000003C4C000070
:104DC000104E00004080FF1FA03200004A4C00003F
:104DD00000127A0000000000000000000000000047
:104DE00000000000000000000000000000000000C3
:104DF00000000000000000000000000000000000B3
:104E000000000000000000000000000000000000A2
:040000050000028174
:00000001FF
